:020000040800F2
:1000000068060020CD0100083D060008E50500084F
:100010003906000887020008650B00080000000090
:10002000000000000000000000000000E9060008D9
:100030008B02000800000000C5060008DD0900086A
:10004000E7010008E7010008E7010008E7010008F0
:10005000E7010008E7010008E70100088D02000839
:10006000E7010008E7010008E7010008E7010008D0
:10007000E7010008E7010008E7010008E7010008C0
:10008000E7010008E7010008E7010008E7010008B0
:10009000E7010008E7010008E7010008D1020008B5
:1000A000E7010008E7010008E7010008E701000890
:1000B000AD0A0008110B0008E7010008E70100087D
:1000C000E7010008E7010008E7010008E701000870
:1000D000E7010008E7010008E7010008E701000860
:1000E000E7010008E7010008E7010008E701000850
:1000F000E7010008E7010008E7010008E701000840
:10010000E7010008E7010008E7010008E70100082F
:10011000E7010008E7010008E7010008E70100081F
:10012000E7010008E7010008E7010008E70100080F
:1001300000F002F800F03AF80AA090E8000C8244BF
:100140008344AAF10107DA4501D100F02FF8AFF29C
:10015000090EBAE80F0013F0010F18BFFB1A43F0A5
:1001600001031847340A0000540A0000103A24BF63
:1001700078C878C1FAD8520724BF30C830C144BF0C
:1001800004680C607047000000230024002500264E
:10019000103A28BF78C1FBD8520728BF30C148BFEA
:1001A0000B6070471FB51FBD10B510BD00F031F8D2
:1001B0001146FFF7F7FF00F0E2FC00F04FF803B440
:1001C000FFF7F2FF03BC00F057F800000948804732
:1001D00009480047FEE7FEE7FEE7FEE7FEE7FEE729
:1001E000FEE7FEE7FEE7FEE704480549054A064B41
:1001F000704700004D0A0008310100086800002027
:1002000068060020680200206802002070477047DE
:100210007047754600F02CF8AE4605006946534617
:1002200020F00700854618B020B5FFF7DDFFBDE8D8
:1002300020404FF000064FF000074FF000084FF04D
:10024000000B21F00701AC46ACE8C009ACE8C009DE
:10025000ACE8C009ACE8C0098D46704710B504464B
:10026000AFF300802046BDE81040FFF7A8BF0000B4
:10027000004870470800002001491820ABBEFEE787
:1002800026000200704700BFFEE7704710B502204D
:1002900000F046F8012815D10B480078401C40B208
:1002A00009490870084690F900003C2807DB002047
:1002B000087006480078401C40B2044908700220CB
:1002C00000F028F810BD0000010000200000002010
:1002D00010B5202000F024F8012815D10B48007833
:1002E000401E40B209490870084690F900000028F5
:1002F00007DA3B20087006480078401E40B20449E7
:100300000870202000F006F810BD00000100002059
:1003100000000020014908607047000014040140FB
:10032000014600200022074B1B6803EA0102054B2F
:1003300014331B680B4013B10AB1012000E0002008
:100340007047000000040140002123498279002AFF
:100350003AD00A46126803689A430B461A600A1D8F
:10036000126803689A430B1D1A60027911440A68E7
:1003700003681A430A60184A0832126803689A43ED
:10038000154B08331A601A1D126803689A43124B02
:100390000C331A604279102A0ED11A1F12680368B2
:1003A0001A430D4B08331A601A1D126803681A436A
:1003B000094B0C331A600DE00749427911440A6871
:1003C00003681A430A6005E0027911440A68036869
:1003D0009A430A6070470000000401400EB500F027
:1003E00003F90121084600F06FF90121002000F017
:1003F00031F80521002000F02DF822200190012085
:100400008DF80A0000208DF808000C208DF80900F6
:1004100001A8FFF799FF07208DF8000001208DF853
:10042000030002208DF8010001208DF802006846CB
:1004300000F006F917208DF8000001208DF8030068
:1004400002208DF8010001208DF80200684600F0BE
:10045000F7F80EBD30B500228B071C0F0F2303FAEF
:1004600004F20B4B8C1053F824309343084C8D103E
:1004700044F8253023468C1053F824308C07240F81
:1004800000FA04F42343024C8D1044F8253030BDAB
:10049000080001402DE9F041024600250026002019
:1004A00000230024002791F803C00CF00F0591F8F9
:1004B00003C00CF0100CBCF1000F03D091F802C087
:1004C0004CEA050591F800C0BCF1000F31D014686A
:1004D00000202BE04FF0010C0CFA00F3B1F800C043
:1004E0000CEA03069E4220D183004FF00F0C0CFA59
:1004F00003F7BC4305FA03FC4CEA040491F803C07B
:10050000BCF1280F06D14FF0010C0CFA00FCC2F828
:1005100014C00AE091F803C0BCF1480F05D14FF0B8
:10052000010C0CFA00FCC2F810C0401C0828D1D302
:100530001460B1F800C0BCF1FF0F34DD5468002036
:100540002EE000F1080C4FF0010808FA0CF3B1F8A6
:1005500000C00CEA03069E4221D183004FF00F0C2D
:100560000CFA03F7BC4305FA03FC4CEA040491F8C7
:1005700003C0BCF1280F05D100F1080C08FA0CF8F3
:10058000C2F8148091F803C0BCF1480F07D100F104
:10059000080C4FF0010808FA0CF8C2F81080401C53
:1005A0000828CED35460BDE8F0810246002093684D
:1005B0000B400BB1012000E0002070474161704703
:1005C00001617047C160704710B54FF480710448F5
:1005D000FFF7EBFF08B9012010BD0020FCE7000089
:1005E0000008014000BFFEE708B50121042000F02B
:1005F0006BF848208DF803002220ADF800000120A0
:100600008DF8020069460248FFF744FF08BD00006C
:100610000008014010B504462CB94FF4807105481C
:10062000FFF7CEFF04E04FF480710248FFF7C6FFEA
:1006300010BD00000008014000BFFEE77047000049
:1006400070B5002100230F22C47804B3154C246830
:1006500004F4E064C4F5E064210AC1F10403CA4073
:10066000447804FA03F184781440214309010E4CC4
:100670000678A155047804F01F050124AC400578E4
:100680006D11AD0005F1E025C5F8004109E00478E1
:1006900004F01F050124AC40044D0678761145F89E
:1006A000264070BD0CED00E000E400E080E100E0D9
:1006B00002490143024A1160704700000000FA0538
:1006C0000CED00E07047000029B1064A9269024330
:1006D000044B9A6104E0034A92698243014B9A6198
:1006E00070470000001002407047000010B504463B
:1006F000FF212248FFF764FF0A2C38D2DFE804F01C
:10070000050A0F14191E23282D323F211B48FFF71D
:1007100055FF31E006211948FFF750FF2CE05B211F
:100720001648FFF74BFF27E04F211448FFF746FF1D
:1007300022E066211148FFF741FF1DE06D210F48BF
:10074000FFF73CFF18E07D210C48FFF737FF13E06F
:1007500007210A48FFF732FF0EE07F210748FFF725
:100760002DFF09E06F210548FFF728FF04E0FF2176
:100770000248FFF725FF00BF00BF10BD0010014079
:100780002DE9F0473F4890F900000A2190FBF1F075
:1007900044B23C4890F9000090FBF1F201FB1205D5
:1007A000394890F9000090FBF1F046B2364890F9D4
:1007B000000090FBF1F201FB1207344890F90000B1
:1007C00090FBF1F04FFA80F8304890F9000090FB70
:1007D000F1F201FB12093F212D48FFF7EFFE012145
:1007E0002B48FFF7EDFE2046FFF780FF142000F0B6
:1007F000BBF93F212648FFF7E1FE02212448FFF71D
:10080000DFFE2846FFF772FF142000F0ADF93F210C
:100810001F48FFF7D3FE04211D48FFF7D1FE3046E5
:10082000FFF764FF142000F09FF93F211848FFF7FD
:10083000C5FE08211648FFF7C3FE3846FFF756FFEE
:10084000142000F091F93F211148FFF7B7FE102165
:100850000F48FFF7B5FE4046FFF748FF142000F0B1
:1008600083F93F210A48FFF7A9FE20210848FFF736
:10087000A7FE4846FFF73AFF142000F075F9BDE8DF
:10088000F08700000000002001000020020000208E
:10089000000C014008B501211020FFF715FF0121D0
:1008A0000820FFF711FF10208DF80300FF20ADF89E
:1008B000000001208DF8020069460C48FFF7EAFDB0
:1008C00010208DF803003F20ADF8000001208DF8C6
:1008D000020069460648FFF7DDFD00210348FFF7E7
:1008E00071FE00210248FFF76DFE08BD00100140B7
:1008F000000C014010B500F001F810BD0CB500204F
:10090000019000903348006840F48030314908601D
:1009100000BF3048006800F4003000900198401C8F
:100920000190009818B90198B0F5A06FF1D129484D
:10093000006800F4003010B10120009001E00020B8
:1009400000900098012843D12348006840F010002F
:10095000214908600846006820F003000860084646
:10096000006840F0020008601A4840681949486071
:100970000846406848600846406840F48060486027
:100980000846406820F47C1048600846406840F4FF
:10099000E81048600846006840F08070086000BFBA
:1009A0000C48006800F000700028F9D00948406841
:1009B00020F00300074948600846406840F0020004
:1009C000486000BF0348406800F00C000828F9D1D7
:1009D0000CBD0000001002400020024010B5184875
:1009E0000078401C1649087008460078642826DB09
:1009F000FFF7EAFD08B9012000E000200446FFF7F8
:100A000009FEFF210F48FFF7DBFD0F4802780120A8
:100A1000904081B20B48FFF7D1FD0B480078401C95
:100A20000949087008460078092805DB002008708D
:100A3000FF210448FFF7C4FD00200149087010BDE4
:100A400003000020001001400400002010B51348EE
:100A5000006840F0010011490860084640681049EC
:100A600008400E494860084600680E4908400B4996
:100A700008600846006820F4802008600846406846
:100A800020F4FE0048604FF41F008860FFF732FF3B
:100A90004FF000600449086010BD000000100240E3
:100AA0000000FFF8FFFFF6FE08ED00E010B50121A1
:100AB000880700F046F818B30121880700F03EF8D7
:100AC00010480078401C40B20E490870084690F962
:100AD00000003C2814DB002008700B480078401C04
:100AE00040B209490870084690F900003C2807DB2D
:100AF0000020087005480078401C40B20349087087
:100B000010BD0000020000200100002000000020B5
:100B100010B50121084800F014F860B10121064821
:100B200000F00CF8FFF750FD08B9012000E00020AC
:100B30000446FFF76FFD10BD00040040CA43028267
:100B4000704730B50246002000230024158A05EACC
:100B50000103958905EA010413B10CB1012000E0FD
:100B6000002030BD00BFFEE7002105E0002200E0CC
:100B7000521C962AFCDB491C8142F7DB70474FF47C
:100B8000A060FFF795FDFFF729FCFFF783FE01E06A
:100B9000FFF7F6FDFCE70000B80B0008000000209E
:100BA000080000006C010008C00B000808000020CD
:100BB0006006000088010008013A350000000000CE
:0400000508000131BD
:00000001FF
