:020000040800F2
:1000000050070020CD010008610500089104000898
:100010005D0500087D020008870800080000000058
:10002000000000000000000000000000850500083E
:10003000810200080000000063050008FD060008BA
:10004000E7010008E7010008E7010008E7010008F0
:10005000E7010008E7010008E7010008E7010008E0
:1000600083020008A9020008E7010008E701000870
:10007000E7010008E7010008E7010008E7010008C0
:10008000E7010008E7010008E7010008E7010008B0
:10009000E7010008E7010008E7010008CF020008B7
:1000A000E7010008E7010008E7010008E701000890
:1000B000E7010008E7010008E7010008E701000880
:1000C000E7010008E7010008E7010008E701000870
:1000D000E7010008A1070008E7010008E7010008A0
:1000E000E7010008E7010008E7010008E701000850
:1000F000E7010008E7010008E7010008E701000840
:10010000E7010008E7010008E7010008E70100082F
:10011000E7010008E7010008E7010008E70100081F
:10012000E7010008E7010008E7010008E70100080F
:1001300000F002F800F03AF80AA090E8000C8244BF
:100140008344AAF10107DA4501D100F02FF8AFF29C
:10015000090EBAE80F0013F0010F18BFFB1A43F0A5
:100160000103184780070000A0070000103A24BFD1
:1001700078C878C1FAD8520724BF30C830C144BF0C
:1001800004680C607047000000230024002500264E
:10019000103A28BF78C1FBD8520728BF30C148BFEA
:1001A0000B6070471FB51FBD10B510BD00F033F8D0
:1001B0001146FFF7F7FF00F08DFB00F051F803B494
:1001C000FFF7F2FF03BC00F060FB00000948804726
:1001D00009480047FEE7FEE7FEE7FEE7FEE7FEE729
:1001E000FEE7FEE7FEE7FEE704480549054A064B41
:1001F000704700004107000831010008500100204D
:100200005007002050030020500300207047704723
:10021000704770477047754600F02CF8AE460500F1
:100220006946534620F00700854618B020B5FFF711
:10023000DBFFBDE820404FF000064FF000074FF015
:1002400000084FF0000B21F00701AC46ACE8C009F4
:10025000ACE8C009ACE8C009ACE8C0098D467047FD
:1002600010B50446AFF300802046BDE81040FFF70C
:10027000A6BF000000487047EC00002000BFFEE76A
:10028000704710B5042000F03DF801280BD100F0B4
:10029000F3F808B9012000E00020044600F00CF952
:1002A000042000F029F810BD10B5082000F02AF84D
:1002B00001280BD100F0D2F808B9012000E000209D
:1002C000044600F0E7F8082000F016F810BD10B55D
:1002D0004FF4807000F016F801280CD100F0CCF833
:1002E00008B9012000E00020044600F0E5F84FF4D2
:1002F000807000F001F810BD0149086070470000EF
:1003000014040140014600200022074B1B6803EA49
:100310000102054B14331B680B4013B10AB10120D5
:1003200000E0002070470000000401402DE9F0418A
:10033000024600250026002000230024002791F813
:1003400003C00CF00F0591F803C00CF0100CBCF1C9
:10035000000F03D091F802C04CEA050591F800C0E7
:10036000BCF1000F31D0146800202BE04FF0010CDD
:100370000CFA00F3B1F800C00CEA03069E4220D14B
:1003800083004FF00F0C0CFA03F7BC4305FA03FC93
:100390004CEA040491F803C0BCF1280F06D14FF0D9
:1003A000010C0CFA00FCC2F814C00AE091F803C07A
:1003B000BCF1480F05D14FF0010C0CFA00FCC2F85B
:1003C00010C0401C0828D1D31460B1F800C0BCF1A3
:1003D000FF0F34DD546800202EE000F1080C4FF0D0
:1003E000010808FA0CF3B1F800C00CEA03069E42BB
:1003F00021D183004FF00F0C0CFA03F7BC4305FA30
:1004000003FC4CEA040491F803C0BCF1280F05D1A9
:1004100000F1080C08FA0CF8C2F8148091F803C037
:10042000BCF1480F07D100F1080C4FF0010808FAA1
:100430000CF8C2F81080401C0828CED35460BDE8E8
:10044000F0810246002093680B400BB1012000E0D0
:1004500000207047416170470161704710B54FF44B
:1004600080710448FFF7EDFF08B9012010BD00209E
:10047000FCE700000008014010B504210348FFF725
:10048000E0FF08B9012010BD0020FCE70014014086
:1004900000BFFEE710B504462CB94FF48071054843
:1004A000FFF7DAFF04E04FF480710248FFF7D2FF54
:1004B00010BD00000008014010B5044624B9042115
:1004C0000448FFF7C9FF03E004210248FFF7C2FF19
:1004D00010BD00000014014008B50121242000F0E7
:1004E00041F80121102000F03DF810208DF80300A4
:1004F0000001ADF8000001208DF8020069461448A3
:10050000FFF714FF10208DF803000420ADF8000061
:1005100001208DF8020069460E48FFF707FF102002
:100520008DF80300FF20ADF8000001208DF80200D7
:1005300069460948FFF7FAFEFF210748FFF78CFFDD
:100540000020FFF7A7FF0020FFF7B6FF08BD00005F
:1005500000080140001401400010014000BFFEE708
:100560007047704729B1064A92690243044B9A6169
:1005700004E0034A92698243014B9A61704700008C
:1005800000100240704710B500F002F810BD0000E6
:100590000CB50020019000903348006840F4803092
:1005A0003149086000BF3048006800F40030009016
:1005B0000198401C0190009818B90198B0F5A06FFF
:1005C000F1D12948006800F4003010B101200090FA
:1005D00001E0002000900098012843D123480068E2
:1005E00040F01000214908600846006820F0030030
:1005F00008600846006840F0020008601A48406839
:10060000194948600846406848600846406840F418
:10061000806048600846406820F47C1048600846C6
:10062000406840F4E81048600846006840F0807078
:10063000086000BF0C48006800F000700028F9D086
:100640000948406820F003000749486008464068B0
:1006500040F00200486000BF0348406800F00C0012
:100660000828F9D10CBD0000001002400020024013
:1006700070B500F00DF96FF0040000F02BF812498E
:10068000B1F1807F00D31DE021F07F40401E4FF08C
:10069000E022506150170F22002807DA13071D0EC1
:1006A0000A4B00F00F04241F1D5503E013071C0E16
:1006B000074B1C5400BF00204FF0E0229061072040
:1006C000106100BF70BD000000127A0018ED00E05C
:1006D00000E400E0042808D14FF0E021096941F06E
:1006E00004014FF0E022116107E04FF0E0210969B9
:1006F00021F004014FF0E0221161704710B5FF2195
:100700000D48FFF7A9FE0D4802780120904081B204
:100710000948FFF79FFE09480078401C0749087008
:1007200008460078092805DB00200870FF210248F0
:10073000FFF792FE10BD00000010014014000020E1
:1007400010B51348006840F00100114908600846E0
:100750004068104908400E494860084600680E4944
:1007600008400B4908600846006820F480200860B3
:100770000846406820F4FE0048604FF41F0088607F
:10078000FFF701FF4FF000600449086010BD000052
:10079000001002400000FFF8FFFFF6FE08ED00E049
:1007A00010B540F225511D4800F03EF810B31B482B
:1007B00000F064F8C4B21A48008800F40040C8B9D8
:1007C0001748008800F4804060B10A2C03D0002054
:1007D0001349088020E01248008840F40040104986
:1007E000088019E00D2C06D10D48008840F48040A7
:1007F0000B49088010E00A480088C0F30D00094941
:100800000C5407480088401C0549088008460088A9
:10081000C72801DD0020088010BD0000003801401D
:10082000200000202400002070B502460024002390
:100830000025002040F66A16B14200D100BFC1F386
:10084000421501F01F03012606FA03F3012D02D120
:100850009689334006E0022D02D1168A334001E02A
:10086000968A33400C12012606FA04F416883440A6
:1008700013B10CB1012000E0002070BD0146888852
:10088000C0F30800704700BFFEE700BF70470000DC
:1008900010B56FF00400FFF71DFF0A4800680A4911
:1008A000B0FBF1F0094908700846007800EB400100
:1008B000C1EBC0104FF6FF7101EAC0000449088087
:1008C00010BD00000000002000127A001600002079
:1008D00018000020FFF7DCFFFFF7FEFDFFF7C8FE62
:1008E00000BFFEE70409000800000020240000000B
:1008F0006C01000828090008240000202C070000D3
:100900008801000800A24A04000000000000000066
:1009100001020304060708090000000000000000AF
:080920000000000000000000CF
:0400000508000131BD
:00000001FF
